:020000040800F2
:10000000C81A0020050100087B3000086529000897
:1000100077300008DD1400082740000800000000C9
:10002000000000000000000000000000753A000819
:10003000E1140008000000001F390008773A0008AA
:100040001F0100081F0100081F0100081F01000810
:100050001F0100081F0100081F0100081F01000800
:100060001F0100081F0100081F0100081F010008F0
:100070001F0100081F0100081F0100081F010008E0
:100080001F0100081F0100081F0100081F010008D0
:100090001F0100081F0100081F010008ED150008DE
:1000A0001F0100081F0100081F0100081F010008B0
:1000B0001F010008E13A00081F0100081F010008A5
:1000C0001F0100081F0100081F0100081F01000890
:1000D0001F0100081F010008E53D00081F0100087E
:1000E0001F0100081F0100081F010008DFF810D0E1
:1000F00001F09AF800480047054A0008AFF3008075
:10010000C81A00200648804706480047FEE7FEE779
:10011000FEE7FEE7FEE7FEE7FEE7FEE7FEE7FEE7B7
:10012000DF3A0008ED0000082DE9FF4FA3B06FF0A3
:1001300003022398239940680290896820912399AB
:100140000988189102EB8101084403902698C008A1
:100150001F9000F084831898C008219024980168AB
:10016000039801602498039950F8042F41F8042F54
:1001700050F8042F41F8042F50F8042F41F8042FB1
:1001800000220C9201921392129210920F920E92F0
:100190000D92209D029C50F8042F41F8042F50F836
:1001A000042F41F8042F50F8042F41F8042F42681F
:1001B0004A60083108300391249054F8040B0B90E6
:1001C00054F804AB54F8040B089054F8049BDDF881
:1001D00084B054F8048BBBF1000F54F8047B54F83E
:1001E000046B00F0B28200BF55F8040B009054F885
:1001F000040B0A9000990B9800F096FC1190504661
:10020000009900F091FC1B900099089800F08CFC7C
:1002100017904846009900F087FC1A9040460099D4
:1002200000F082FC19903846009900F07DFC169091
:100230003046009900F078FC159000990A9800F07B
:1002400073FC149055F8040B009054F8040B0B90B9
:100250001199019800F010FC01901B99139800F07F
:100260000BFC13901799129800F006FC12901A9943
:10027000109800F001FC109019990F9800F0FCFB09
:100280000F9016990E9800F0F7FB0E9015990D98A7
:1002900000F0F2FB0D9014990C9800F0EDFB0C901F
:1002A0005046009900F040FC11900099089800F029
:1002B0003BFC1B904846009900F036FC17904046E6
:1002C000009900F031FC1A903846009900F02CFC9F
:1002D00019903046009900F027FC169000990A9872
:1002E00000F022FC159000990B9800F01DFC149072
:1002F00055F8040B009054F804AB1199019800F0E4
:10030000BBFB01901B99139800F0B6FB1390179953
:10031000129800F0B1FB12901A99109800F0ACFB03
:10032000109019990F9800F0A7FB0F9016990E984E
:1003300000F0A2FB0E9015990D9800F09DFB0D901A
:1003400014990C9800F098FB0C900099089800F014
:10035000EBFB11904846009900F0E6FB1B904046ED
:10036000009900F0E1FB17903846009900F0DCFBA3
:100370001A903046009900F0D7FB199000990A981E
:1003800000F0D2FB169000990B9800F0CDFB159071
:100390005046009900F0C8FB149055F8040B0090EB
:1003A00054F8040B08901199019800F065FB019036
:1003B0001B99139800F060FB13901799129800F0A6
:1003C0005BFB12901A99109800F056FB1090199947
:1003D0000F9800F051FB0F9016990E9800F04CFB0F
:1003E0000E9015990D9800F047FB0D9014990C98FC
:1003F00000F042FB0C904846009900F095FB1190EC
:100400004046009900F090FB1B903846009900F0A0
:100410008BFB17903046009900F086FB1A900099EC
:100420000A9800F081FB199000990B9800F07CFB72
:1004300016905046009900F077FB159000990898A7
:1004400000F072FB149055F8040B009054F8049BD4
:100450001199019800F010FB01901B99139800F07E
:100460000BFB13901799129800F006FB12901A9943
:10047000109800F001FB109019990F9800F0FCFA09
:100480000F9016990E9800F0F7FA0E9015990D98A6
:1004900000F0F2FA0D9014990C9800F0EDFA0C901F
:1004A0004046009900F040FB11903846009900F05A
:1004B0003BFB1B903046009900F036FB17900099EB
:1004C0000A9800F031FB1A9000990B9800F02CFB71
:1004D00019905046009900F027FB16900099089853
:1004E00000F022FB15904846009900F01DFB149087
:1004F00055F8040B009054F8048B1199019800F002
:10050000BBFA01901B99139800F0B6FA1390179953
:10051000129800F0B1FA12901A99109800F0ACFA03
:10052000109019990F9800F0A7FA0F9016990E984D
:1005300000F0A2FA0E9015990D9800F09DFA0D901A
:1005400014990C9800F098FA0C903846009900F035
:10055000EBFA11903046009900F0E6FA1B900099F2
:100560000A9800F0E1FA179000990B9800F0DCFA75
:100570001A905046009900F0D7FA199000990898FF
:1005800000F0D2FA16904846009900F0CDFA159086
:100590004046009900F0C8FA149055F8040B0090FA
:1005A00054F8047B1199019800F066FA01901B99A8
:1005B000139800F061FA13901799129800F05CFA02
:1005C00012901A99109800F057FA109019990F98F4
:1005D00000F052FA0F9016990E9800F04DFA0E9016
:1005E00015990D9800F048FA0D9014990C9800F0A8
:1005F00043FA0C903046009900F096FA1190009959
:100600000A9800F091FA1B9000990B9800F08CFA70
:1006100017905046009900F087FA1A9000990898B0
:1006200000F082FA19904846009900F07DFA169081
:100630004046009900F078FA15903846009900F08D
:1006400073FA149055F8040B009054F8046B119948
:10065000019800F011FA01901B99139800F00CFA20
:1006600013901799129800F007FA12901A9910989F
:1006700000F002FA109019990F9800F0FDF90F9010
:1006800016990E9800F0F8F90E9015990D9800F053
:10069000F3F90D9014990C9800F0EEF90C90009974
:1006A0000A9800F041FA119000990B9800F03CFA7A
:1006B0001B905046009900F037FA1790009908985F
:1006C00000F032FA1A904846009900F02DFA19907D
:1006D0004046009900F028FA16903846009900F03C
:1006E00023FA15903046009900F01EFA1490ABF1F1
:1006F000010B1199019800F0BFF901901B99139813
:1007000000F0BAF913901799129800F0B5F9129009
:100710001A99109800F0B0F9109019990F9800F0FC
:10072000ABF90F9016990E9800F0A6F90E90159956
:100730000D9800F0A1F90D9014990C9800F09CF917
:100740000C90BBF1000F7FF44FAD189810F0070B21
:1007500063D000BF55F8040B009054F8040B0A90C6
:1007600000990B9800F0E0F911905046009900F0C4
:10077000DBF91B900099089800F0D6F917904846CD
:10078000009900F0D1F91A904046009900F0CCF998
:1007900019903846009900F0C7F916903046009934
:1007A00000F0C2F9159000990A9800F0BDF9CDF853
:1007B0002CA0DDF820A0CDF82090C1461490B846BA
:1007C00037460A9E1199019800F056F901901B993D
:1007D000139800F051F913901799129800F04CF902
:1007E00012901A99109800F047F9109019990F98E3
:1007F00000F042F90F9016990E9800F03DF90E9016
:1008000015990D9800F038F90D9014990C9800F096
:1008100033F90C90BBF1010B9CD10298203002906F
:100820002599019808602598139940F8041F12999A
:1008300040F8041F109940F8041F0F9940F8041F56
:100840000E9940F8041F0D9940F8041F0C9941605F
:10085000083025901F98401E1F907FF47FAC26988B
:1008600010F0070850D02498002501680398016013
:100870002498209E001D24900398029C001D039044
:10088000DDF860903168206800F04EF9294600F0EC
:10089000F3F8371D261D0546B9F1010429D0B4F13E
:1008A000004F7DD2002C24DD361F3F1F14F0010FB6
:1008B00009D057F8041F56F8040F00F035F92946FF
:1008C00000F0DAF80546641013D07968706800F01B
:1008D0002BF9294600F0D0F8054657F8081F56F8BE
:1008E000080F00F021F9294600F0C6F80546641EFD
:1008F000EBD1259805602598001D25900298001DD4
:100900000290B8F10108AED12398189940684C1EA6
:10091000A30820D0B3F1004F56D2002B1BDD029A62
:1009200001469C4652F8045B41F8045B52F8045BB4
:1009300041F8045B52F8085B41F8085B52F8045C2C
:1009400041F8045CBCF1010CECD1029900EB0310FE
:1009500001EB0311029114F0030104BF27B0BDE8BD
:10096000F08FB1F1004F44D20029DCBF27B0BDE8C1
:10097000F08F031F029A121F11F0010F03D052F8DB
:10098000040F43F8040F480804BF27B0BDE8F08FF8
:100990005168596052F8081F43F8081F401E00E0D4
:1009A00003E0F5D127B0BDE8F08F3968306800F07A
:1009B000BBF8294600F060F80546641E06F10406FF
:1009C00007F10407F1D194E70299096840F8041B84
:1009D000029951F8042F40F8042B51F8042F40F8E5
:1009E000042B4A68083140F8042B02915B1EEBD1BE
:1009F000B1E7029A126840F8042B029A121D029283
:100A0000491EF6D127B0BDE8F08F70B504460498B2
:100A1000218008448000011F1D461846A26000F096
:100A200019F8656070BD202A04DB203A21FA02F033
:100A30000021704721FA02F3D040C2F12002914018
:100A4000084319467047D2B201E000F8012B491E55
:100A5000FBD270470022F6E710B513460A4604465B
:100A60001946FFF7F0FF204610BD421C10F8011B8D
:100A70000029FBD1801A7047F0B480EA0102D40F3C
:100A80004200B2EB410F02D20246084611464A002C
:100A900042D0C30DDDB2C1F3C752AD1A202D35DAF5
:100AA000C1F3160141F4000204B15242C5F120061F
:100AB00002FA06F12A411044B3EBD05F23D0C4B14F
:100AC000012DA0EBC35009DCF0BC4FF0004202EA5C
:100AD000C352DBB200F5000000F003BB400000F1A0
:100AE000807000EBC350A0F1807040EAD1704900E3
:100AF00009E0490841EAC071A0EBC35000F50000CD
:100B0000400800EBC350F0BC00F0E2BA61420122A1
:100B100002EB4101001BF6E7F0BC704781F0004199
:100B2000AAE780F00040A7E780EA010210B502F0D2
:100B30000043400022D04A001FD0010E01EB126199
:100B4000C0F35600C2F3560240F4000042F4000223
:100B5000A0FB022000047F39140400D0401C50EA9E
:100B6000124001D44000491EC2B20C0604EBD01062
:100B7000401C4008802A02D003E0002010BD20F075
:100B80000100002900DA0020184310BD30B480EACB
:100B9000010202F0004530F0004221F0004013D085
:100BA00090B1C30DD40DC2F31601C0F31600E41AC0
:100BB00041F4000140F400027D34914201D3641CF1
:100BC00000E04900002C02DA30BC002070474FF4EE
:100BD00000000023914201D3891A034340084FEAE1
:100BE0004101F7D151B1914202D14FF0004105E0EE
:100BF00002D24FF0010101E06FF0010103EBC4509C
:100C0000284430BC00F064BA2DE9FE4F804681EAEA
:100C10000300C00F0C46009021F0004123F0004576
:100C2000B8EB0200A94105D24046214690461C4639
:100C30000B46024623F00040104347D0270DC7F370
:100C40000A00C3F30A510290401A019040286BDA5F
:100C5000C3F3130040F4801B0098924620B1002398
:100C6000D2EB030A63EB0B0B01985946C0F140022B
:100C7000504600F00CFA06460D4650465946019A79
:100C800000F014FA10EB08006141002487EA1152C9
:100C900084EAE7731A4340D0009A62B3019A012AAA
:100CA0004FEA075215DC001B61EB02014FF00042D6
:100CB00002EA0752CDE90042001C41F5801132469C
:100CC0002B4600F04BFA03B0BDE8F08F40462146BA
:100CD000F9E7001B61EB0201001C41F580130018CD
:100CE0005B412018A2F5001747EB030140EAD570DD
:100CF000B6196D4111E06D084FEA360645EAC07538
:100D00004FEA0752001B61EB0201001C41F5801104
:100D100049084FEA30000019514132462B4603B0D2
:100D2000BDE8F04F00F00BBA00980122400000230C
:100D3000D0EB020263EBE073009821464FEAE074C7
:100D4000B8EB000061EB0401E9E783F000435BE7E7
:100D500081F0004158E72DE9FE4F81EA030404F0D9
:100D6000004421F0004100944FF0000B23F00043B9
:100D700050EA01045ED052EA03045BD0C3F30A5484
:100D8000C1F30A552C44A4F2F3340194A0FB02549D
:100D9000C1F3130141F48011C3F3130343F480132F
:100DA00001FB024400FB034E840A970A44EA815483
:100DB00047EA8357A4FB076802958D0A05FB078560
:100DC0004FEA932C04FB0C542705029D4FEA06586A
:100DD00047EA1637B5EB08056EEB070C870E920E47
:100DE00047EA811742EA8312A7FB0201B6EB0B0127
:100DF00064EB00042B0D43EA0C335E1844EB1C50EB
:100E0000DA465146E7FB0201C5F313044FEA0B3300
:100E100043EA14534FEA0432019C43EA0603A4F167
:100E20000C040294009CCDE900B400F097F903B0E3
:100E3000BDE8F08F00200146F9E72DE9F04D81EA89
:100E4000030404F0004B21F0004514464FF0000A63
:100E500023F0004150EA050220D054EA01021DD0DF
:100E6000C5F30A570246C5F31303C1F31300C1F3D8
:100E70000A5640F4801543F48013A7EB0608101BB4
:100E8000D64608F2FD3873EB050002D308F10108DD
:100E900001E092185B41B8F1000F03DA002001462F
:100EA000BDE8F08D00204FF48011064684460EE028
:100EB000171B73EB050705D3121B63EB05030643F2
:100EC0004CEA010C49084FEA300092185B4150EAA5
:100ED0000107EDD152EA030012D082EA040083EA4E
:100EE0000501084305D0101BAB4106D201220023A7
:100EF00006E000224FF0004302E06FF001025310C1
:100F00001AEB06004CEB085110EB0A0041EB0B0109
:100F1000BDE8F04D00F013B996230022114600F011
:100F2000E0B820F00040C10DC0F3160040F400000E
:100F30007F2901DA00207047962903DCC1F1960170
:100F4000C840704796398840704700F0004230F042
:100F500000400AD0C10D01F56071C0F3160042EAED
:100F60000151C208400711437047002001467047F5
:100F700030B5041E71F1000404DB4FF00044404220
:100F800064EB0101141E73F1000405DB1C464FF0F5
:100F90000043524263EB0403994208BF904230BDC4
:100FA00001F0004330B421F0004150EA010206D0C4
:100FB0000A0DA2F56072C1F31301002A02DC30BCF5
:100FC00000207047440F44EAC104C100E01830BC5F
:100FD00000EBC25000F07CB8002801DBC0F10040FB
:100FE000002901DBC1F1004181427047002801DB8B
:100FF000C0F10040002901DBC1F100418842704787
:1010000030B50B46014600202022012409E021FAD8
:1010100002F59D4205D303FA02F5491B04FA02F5D5
:101020002844151EA2F10102F1DC30BD2DE9F05F6C
:101030000546002092469B46884606468146402447
:101040001BE02846414647462246FFF7ECFC534644
:101050005A46C01A914110D311461846224600F054
:1010600016F82D1A67EB01084F4622460120002191
:1010700000F00DF817EB00094E41201EA4F1010409
:10108000DFDC484631462A464346BDE8F09F202A29
:1010900004DB203A00FA02F1002070479140C2F1CF
:1010A000200320FA03F3194390407047202A06DBFF
:1010B000CB17203A41FA02F043EAE07306E041FA26
:1010C00002F3D040C2F12002914008431946704714
:1010D0000029A8BF7047401C490008BF20F001004C
:1010E000704710B4B0FA80FC00FA0CF050EA01042A
:1010F00004BF10BC704749B1CCF1200421FA04F4BC
:1011000011FA0CF118BF012121430843A3EB0C0194
:10111000CB1D4FEA00614FEA102042BF002010BCF7
:10112000704700EBC35010440029A4BF10BC7047A7
:10113000401C490008BF20F0010010BC704710B5EA
:10114000141E73F1000408DA401C41F100019218EA
:101150005B411A4301D120F0010010BD2DE9F04D93
:1011600092469B4611B1B1FA81F202E0B0FA80F2E8
:1011700020329046FFF78BFF04460F4640EA0A00F4
:1011800041EA0B0153465A46084313D0114653EA2D
:10119000010019D0C8F140025046FFF744FC054653
:1011A0000E46504659464246FFF771FF084305D0A8
:1011B000012004E020463946BDE8F08D00200543BB
:1011C00046EAE0762C4337430A986305E40AA0EB2D
:1011D00008000022FD0A44EA47540A3002D50020E4
:1011E0000146E9E7010510196941DDE908450019E3
:1011F0006941BDE8F04DA2E7C1F30A52C1F3130102
:1012000040F2FF3341F480119A4202DA0020014695
:10121000704740F233439A42A2F2334202DC524218
:10122000FFF701BCFFF733BF064C074D06E0E0684F
:1012300040F0010394E8070098471034AC42F6D31D
:10124000FEF758FFA85A0008C85A000808B501213F
:10125000082002F081FB0120ADF8000003208DF88A
:10126000020004208DF803006946074800F0C3F926
:101270000220ADF8000004208DF803006946024802
:1012800000F0B9F908BD0000000C014021B18268EE
:1012900042F00102826003E0826822F00102826073
:1012A0007047014600208A6802F004020AB101205A
:1012B00000E0002070470146C86C80B270470246CB
:1012C000002013680B400BB1012000E000207047A4
:1012D000014600208A6802F008020AB1012000E0FD
:1012E0000020704730B502460020002350680F4CA4
:1012F00020400D790C6844EA052420435060906832
:101300000B4C2040D1E902542C434D7944EA45046A
:1013100020439060D06A20F470000C7C641EE4B21C
:10132000234340EA0350D06230BD0000FFFEF0FFCF
:10133000FDF7F1FFF0B504460D4600200021092D10
:1013400011DDE068A5F10A0606EB4607072606FA56
:1013500007F18843A5F10A0606EB460603FA06F1F3
:101360000843E0600CE0206905EB4507072606FA14
:1013700007F1884305EB450603FA06F108432061AF
:10138000072A0FDA606B561E06EB86071F2606FA41
:1013900007F18843561E06EB860605FA06F1084358
:1013A000606322E00D2A0FDA206BD61F06EB86075A
:1013B0001F2606FA07F18843D61F06EB860605FAB4
:1013C00006F10843206310E0E06AA2F10D0606EB87
:1013D00086071F2606FA07F18843A2F10D0606EBE1
:1013E000860605FA06F10843E062F0BD816841F027
:1013F00008018160704721B1826842F4A0028260D6
:1014000003E0826822F4A00282607047816841F0A4
:10141000040181607047000010B501210648FFF704
:10142000EAFF00BF02210448FFF749FF0028F9D076
:101430000148FFF740FF10BD0024014000B587B010
:101440000121480202F088FA0121082002F084FA02
:101450004FF4004002F064FA00208DF81B000120D8
:10146000ADF8180003208DF81A0006A9194800F0FD
:10147000C2F80523012208211748FFF75BFF00206F
:10148000019004904FF46020039000208DF8090033
:101490008DF8080001208DF8140001A90E48FFF70F
:1014A00021FF01210C48FFF7F1FE0B48FFF79EFFDB
:1014B00000BF0948FFF70CFF0128FAD00648FFF7E4
:1014C000A5FF00BF0448FFF7ECFE0128FAD007B0E3
:1014D00000BD0000000C01400024014000BFFEE7F9
:1014E0007047000010B5322211A112A003F050FA8B
:1014F000142213A114A003F04BFA4FF47A7003F0F6
:101500001DFA4FF4967212A114A003F041FA64225E
:1015100007A1194803F03CFA642205A1174803F01B
:1015200037FA4FF4967202A1154803F031FA10BD54
:101530004F4B000041542B43574D4F44453D310024
:10154000726561647900000041542B5253540000CD
:101550005749464920474F542049500041542B4396
:10156000574A41503D2235313332222C2235333215
:10157000383838333722000080590008FC590008F9
:10158000645A000870B504460D46002004490880DE
:101590002B46224603A10BA003F002FD70BD000004
:1015A0002A0000202F6B313665393373566C4C4E50
:1015B0002F6573703031732F757365722F6573707B
:1015C0003031730041542B4D5154545055423D30ED
:1015D0002C222573222C227B5C2225735C223A2547
:1015E000647D222C312C300D0A00000010B5202023
:1015F00000F0AEF810BD2DE9F041024600250026AE
:10160000002000230024002791F803C00CF00F05F0
:1016100091F803C00CF0100CBCF1000F03D091F84E
:1016200002C04CEA050591F800C0BCF1000F31D0B2
:10163000146800202BE04FF0010C0CFA00F3B1F815
:1016400000C00CEA03069E4220D183004FF00F0C2D
:101650000CFA03F7BC4305FA03FC4CEA040491F8C6
:1016600003C0BCF1280F06D14FF0010C0CFA00FCAE
:10167000C2F814C00AE091F803C0BCF1480F05D1CC
:101680004FF0010C0CFA00FCC2F810C0401C0828F6
:10169000D1D31460B1F800C0BCF1FF0F34DD546841
:1016A00000202EE000F1080C4FF0010808FA0CF3BE
:1016B000B1F800C00CEA03069E4221D183004FF02E
:1016C0000F0C0CFA03F7BC4305FA03FC4CEA0404C4
:1016D00091F803C0BCF1280F05D100F1080C08FAFD
:1016E0000CF8C2F8148091F803C0BCF1480F07D180
:1016F00000F1080C4FF0010808FA0CF8C2F810804D
:10170000401C0828CED35460BDE8F0810AB10161C5
:1017100000E041617047000070B5044600F0B6F982
:1017200006462546681C10B104480078054400BFF1
:1017300000F0ACF9801BA842FAD370BD0C00002069
:10174000202802D10121014A117070470E000020AB
:1017500010B5044604480068204020B102480460E7
:101760002046FFF7EDFF10BD140401402DE9F847B6
:101770000346002294466EE14FF0010808FA02F495
:10178000D1F8008008EA0400A0427DD1DFF8DCA295
:10179000D1F80480A8EB0A09D0453AD014DCB8F19E
:1017A000030F50D009DCB8F1000F31D0B8F1010FB0
:1017B0001CD0B8F1020F49D120E0B8F1110F18D0B8
:1017C000B8F1120F42D11EE0B9F5881F25D006DC12
:1017D000B9F5803F20D0B9F5801F37D11AE0B9F5AF
:1017E000001F18D0B9F5041F30D117E0D1F80CC094
:1017F0002DE0D1F80C8008F1040C28E0D1F80C8021
:1018000008F1080C23E0D1F80C8008F10C0C1EE064
:1018100000BF00BF00BF00BF00BF00BFD1F80880FD
:10182000B8F1000F02D14FF0040C0BE0D1F80880A2
:10183000B8F1010F03D14FF0080C1C6102E04FF02A
:10184000080C5C6103E04FF0000C00E000BF00BF3B
:10185000FF2801D8984601E003F104084646FF2816
:1018600002D84FEA820803E0A2F108084FEA88088C
:101870004746D6F800804FF00F0909FA07F928EA21
:1018800009080CFA07F900E088E048EA0908C6F8F8
:101890000080D1F8048008F08058B8F1805F7DD1D5
:1018A00000BFDFF8CC81D8F8188048F00108DFF8D5
:1018B000C091C9F81880C846D8F8188008F0010807
:1018C000CDF8008000BF00BF4FEAB9384FEA920957
:1018D00058F829504FEA82784FEA18794FF00F08EC
:1018E00008FA09F825EA0805DFF88881434502D19E
:1018F0004FF0000816E0DFF88081434502D14FF039
:1019000001080FE0DFF87481434502D14FF002086F
:1019100008E0DFF86C81434502D14FF0030801E095
:101920004FF004084FEA82794FEA197908FA09F86A
:1019300048EA0505DFF84C814FEA920948F829503A
:10194000D1F8048008F48018B8F5801F0AD1DFF8B8
:101950003881D8F8008048EA0008DFF82C91C9F8EF
:10196000008009E0DFF82081D8F8008028EA00082C
:10197000DFF81491C9F80080D1F8048008F4001849
:10198000B8F5001F10D1DFF8008108F10408D8F87D
:10199000008048EA0008DFF8F09000E05AE009F122
:1019A0000409C9F800800DE0DFF8DC8008F10408C4
:1019B000D8F8008028EA0008DFF8CC9009F1040983
:1019C000C9F80080D1F8048008F40038B8F5003F69
:1019D0000ED1DFF8B480A8F10408D8F8008048EAF6
:1019E0000008DFF8A490A9F10409C9F800800DE00F
:1019F000DFF89480A8F10408D8F8008028EA0008ED
:101A0000DFF88490A9F10409C9F80080D1F80480B6
:101A100008F48038B8F5803F0ED1DFF86C80A8F16B
:101A20000808D8F8008048EA0008DFF85C90A9F1BF
:101A30000809C9F800800DE0DFF84C80A8F108081B
:101A4000D8F8008028EA0008DFF83C90A9F10809DE
:101A5000C9F80080521CD1F8008028FA02F8B8F1C9
:101A6000000F7FF489AEBDE8F88700000000111078
:101A70000010024000080140000C0140001001402D
:101A800000140140080001400804014001480068BA
:101A90007047000004000020014691F83D007047A7
:101AA00070B504460CB9012070BD94F83D0028B90A
:101AB000002084F83C00204600F048FB242084F8F5
:101AC0003D002068006820F001002168086020685F
:101AD000006840F40040216808602068006820F435
:101AE00000402168086000F0A9FC05465C49606878
:101AF000884206D85B48854201D2012007E00020D9
:101B000005E05948854201D2012000E0002001286B
:101B100000D1C9E75548B5FBF0F62068406820F0D1
:101B20003F003043216848604D496068884201D8D1
:101B3000701C07E04FF4967070434FF47A71B0FB5D
:101B4000F1F0401C2168096A21F03F010843216837
:101B5000086243496068884214D8681E6168490079
:101B6000B0FBF1F0401CC0F30B00042801D20420AC
:101B70003DE0681E61684900B0FBF1F0401CC0F315
:101B80000B0034E0A06838B9681E616801EB4101C0
:101B9000B0FBF1F0401C0AE0681E616801EBC10275
:101BA00002EB0111B0FBF1F0401C40F48040C0F3A7
:101BB0000B0008B901201AE0A06848B9681E6168E6
:101BC00001EB4101B0FBF1F0401CC0F30B000CE055
:101BD000681E616801EBC10202EB0111B0FBF1F07C
:101BE000401CC0F30B0040F4804040F400402168EA
:101BF000C9694CF6FF72914308432168C861D4E972
:101C0000070108432168096821F0C00108432168E1
:101C10000860D4E9031008432168896848F2FF325C
:101C20009143084321688860D4E90501084321688D
:101C3000C96821F0FF0108432168C8602068006876
:101C400040F001002168086000202064202084F812
:101C50003D000020206384F83E0000BF24E7000020
:101C6000A086010080841E0000093D0040420F0054
:101C70002DE9FC4704468946174698460A9E0020EF
:101C80000190FFF703FF054694F83D0020286FD12F
:101C900019230122CD492046009500F0B4FF10B170
:101CA0000220BDE8FC8700BF94F83C00012801D168
:101CB0000220F6E7012084F83C0000BF206800689D
:101CC00000F0010028B92068006840F00100216898
:101CD00008602068006820F4006021680860222005
:101CE00084F83D00102084F83E00002020646762E4
:101CF000A4F82A80608D2085B548E0622B463246E4
:101D00004946204600F050FE08B10120C9E7208D69
:101D100088B900BF002000902068406900902068CA
:101D20008069009000BF00BF2068006840F4007028
:101D3000216808604BE0208D01281AD120680068D6
:101D400020F480602168086072B600BF0020009017
:101D500020684069009020688069009000BF00BF43
:101D60002068006840F400702168086062B62EE0C8
:101D700029E1208D022819D12068006840F4006014
:101D80002168086072B600BF00200090206840699A
:101D9000009020688069009000BF00BF2068006844
:101DA00020F480602168086062B610E02068006856
:101DB00040F480602168086000BF00200090206827
:101DC0004069009020688069009000BF00BFEBE090
:101DD000208D03287ED8208D012815D12A46314632
:101DE000204600F0ECFF08B101205AE720680069A6
:101DF000616A0870606A401C6062208D401E208508
:101E0000608D401E6085CFE0208D02282CD13346A6
:101E1000002270492046009500F0F5FE08B101202F
:101E20003FE772B62068006840F4007021680860DF
:101E300020680069616A0870606A401C6062208DD9
:101E4000401E2085608D401E608562B62068006956
:101E5000616A0870606A401C6062208D401E2085A7
:101E6000608D401E60859FE0334600225949204620
:101E7000009500F0C8FE08B1012012E72068006854
:101E800020F480602168086072B620680069616A89
:101E90000870606A401C6062208D401E2085608D45
:101EA000401E60854C4800681921B0FBF1F04FF4EA
:101EB0007A71B0FBF1F0C0EBC00000EB8000019044
:101EC00000BF0198401E01900198A8B9002020632E
:101ED000202000E038E084F83D00002084F83E0037
:101EE000206C40F02000206462B600BF002084F81F
:101EF0003C0000BF0120D4E620684069C0F38000A8
:101F00000028DED02068006840F400702168086076
:101F100020680069616A0870606A401C6062208DF8
:101F2000401E2085608D401E608562B62068006975
:101F3000616A0870606A401C6062208D401E2085C6
:101F4000608D401E60852FE02A463146204600F015
:101F500036FF08B10120A4E620680069616A0870B4
:101F6000606A401C6062208D401E2085608D401E8E
:101F7000608520684069C0F38000A8B1208D0328E7
:101F800005D12068006820F480602168086020681E
:101F90000069616A0870606A401C6062208D401EA2
:101FA0002085608D401E6085208D00287FF410AF55
:101FB000202084F83D00002084F83E0000BF84F813
:101FC0003C0000BF6DE602206BE60000020010003E
:101FD0000000FFFF04000100000000202DE9F8438D
:101FE0000446894616461F46DDF82080FFF74EFD61
:101FF000054694F83D0020287ED11923012251493D
:102000002046009500F0FFFD10B10220BDE8F883E6
:1020100000BF94F83C00012801D10220F6E701201E
:1020200084F83C0000BF2068006800F0010028B977
:102030002068006840F0010021680860206800689E
:1020400020F4006021680860212084F83D00102001
:1020500084F83E000020206466626785608D2085DC
:102060003948E0622B4642464946204600F038FD9A
:1020700008B10120CAE700BF002000902068406935
:10208000009020688069009000BF00BF44E02A46AD
:102090004146204600F0D8FE50B1206C042805D1FE
:1020A0002068006840F40070216808600120ADE7F6
:1020B000606A007821680861606A401C6062608D17
:1020C000401E6085208D401E208520684069C0F339
:1020D000800070B1208D60B1606A0078216808616D
:1020E000606A401C6062608D401E6085208D401ECD
:1020F00020852A46414600E022E0204600F050FDBF
:1021000050B1206C042805D12068006840F40070AC
:1021100021680860012079E7208D0028B7D1206868
:10212000006840F4007021680860202084F83D00B9
:10213000002084F83E0000BF84F83C0000BF65E743
:10214000022063E7020010000000FFFF704700005C
:10215000034800680349097808440149086070474A
:10216000040000200C00002010B50848006840F072
:10217000100006490860032000F080F80F2000F0EE
:1021800007F800F02BF8002010BD000000200240EE
:1021900070B504460E4800784FF47A71B1FBF0F048
:1021A0000C490968B1FBF0F5284600F0C1FB08B105
:1021B000012070BD102C07D200222146501E00F0D5
:1021C0001EF80548046001E00120F2E70020F0E776
:1021D0000C0000200000002008000020704701468D
:1021E0000846002809DB00F01F0301229A4043093A
:1021F0009B0003F1E023C3F8002100BF70472DE9E5
:10220000F05F80460D461646002701F021FF074685
:1022100039462A46334601F00700C0F1070ABAF1F1
:10222000040F02D94FF0040A01E0C0F1070AD146B9
:1022300000F1040ABAF1070F02D24FF0000A01E0E0
:10224000A0F1030AD4464FF0010A0AFA09FAAAF1EA
:10225000010A0AEA020A0AFA0CFA4FF0010B0BFA19
:102260000CFBABF1010B0BEA030B4AEA0B04214612
:10227000404601F0F5FEBDE8F09F000000BF00F011
:102280000702064B19684FF6FF031940044B0B4336
:1022900043EA0221014B196000BF70470CED00E0DA
:1022A0000000FA0570B504460D460CB9012070BD5A
:1022B0005A48006800F00700A8420ED2574800684C
:1022C00020F007002843554908600846006800F0E0
:1022D0000700A84201D00120E9E7207800F00200C1
:1022E00002281DD1207800F00400042805D14C48B4
:1022F000406840F4E0604A494860207800F00800F7
:10230000082805D14648406840F460504449486078
:102310004348406820F0F000A16808434049486005
:10232000207800F0010078B36068012806D13C48AD
:10233000006800F4003090B90120B8E76068022816
:1023400006D13748006800F0007040B90120AEE7C0
:102350003348006800F0020008B90120A7E73048C0
:10236000406820F00300616808432D494860FFF78A
:102370008DFB064609E0FFF789FB801B41F288319F
:10238000884202D9032092E707E02548406800F020
:102390000C006168B0EB810FEDD12048006800F0BF
:1023A0000700A8420ED91D48006820F00700284306
:1023B0001A4908600846006800F00700A84201D0EA
:1023C000012074E7207800F00400042807D11448A5
:1023D000406820F4E060E1680843114948602078D3
:1023E00000F00800082808D10D48406820F460502B
:1023F000216940EAC1000A49486000F02FF8084905
:102400004968C1F30311074A515CC8400649086096
:1024100006480068FFF7BCFE002048E700200240A5
:102420000010024094500008000000200800002026
:1024300001480068704700000000002000B5FFF769
:10244000F7FF04494968C1F30221034A515CC840BF
:1024500000BD000000100240A450000870B500212B
:102460000022002400230020134D696801F00C05B0
:10247000F5B1042D02D0082D19D101E00F4819E063
:102480000F4DC1F38346AB5D01F4803555B10A4D64
:102490006D68C5F340450B4E725D084D5D43B5FB5D
:1024A000F2F402E0084D03FB05F4204602E000BF11
:1024B000024800BF00BF70BD0010024000127A0049
:1024C000AC500008BC50000800093D00F8B50446B7
:1024D0000CB90120F8BD207800F00100002878D068
:1024E000F848406800F00C0004280CD0F54840681B
:1024F00000F00C00082811D1F248406800F4803048
:10250000B0F5803F0AD1EF48006800F400300028A1
:102510005FD0606800285CD10120DBE700BF606805
:10252000B0F5803F06D1E748006840F48030E549C7
:10253000086028E0606858B9E248006820F48030FC
:10254000E04908600846006820F4802008601AE02E
:102550006068B0F5A02F0BD1DA48006840F4802005
:10256000D84908600846006840F4803008600AE0F6
:10257000D448006820F48030D249086008460068DA
:1025800020F48020086000BF606888B1FFF77EFA01
:10259000054606E0FFF77AFA401B642801D90320BC
:1025A00098E7C848006800F400300028F2D010E036
:1025B000FFF76CFA054606E0FFF768FA401B64284F
:1025C00001D9032086E7BF48006800F400300028E6
:1025D000F2D1207800F00200022857D1B9484068B3
:1025E00000F00C0050B1B748406800F00C0008281B
:1025F00018D1B448406800F4803098B9B1480068F8
:1026000000F0020020B12069012801D0012061E71B
:10261000AC48006820F0F800616940EAC100A949AF
:10262000086033E02069E8B10120A7490860FFF79E
:102630002DFA054606E0FFF729FA401B022801D9CA
:10264000032047E79F48006800F002000028F2D00E
:102650009C48006820F0F800616940EAC10099498F
:10266000086013E0002098490860FFF70FFA05465C
:1026700006E0FFF70BFA401B022801D9032029E7E7
:102680009048006800F002000028F2D1207800F0A5
:10269000080008282DD1A069B8B101208B49086035
:1026A000FFF7F4F9054606E0FFF7F0F9401B0228B2
:1026B00001D903200EE78348406A00F00200002899
:1026C000F2D0012001F058F913E000207F490860A2
:1026D000FFF7DCF9054606E0FFF7D8F9401B0228B2
:1026E00001D90320F6E67748406A00F0020000288E
:1026F000F2D1207800F00400042873D1002771483B
:10270000C06900F0805070B900BF6E48C06940F0E9
:1027100080506C49C8610846C06900F08050009044
:1027200000BF00BF01276A48006800F48070B0B99C
:102730006748006840F4807065490860FFF7A6F9B3
:10274000054606E0FFF7A2F9401B642801D90320E3
:10275000C0E65F48006800F480700028F2D000BF37
:10276000E068012806D15748006A40F00100554949
:10277000086227E0E06858B95248006A20F001007A
:10278000504908620846006A20F00400086219E017
:10279000E06805280BD14B48006A40F00400494925
:1027A00008620846006A40F0010008620AE04548F5
:1027B000006A20F00100434908620846006A20F0E0
:1027C0000400086200BFE068A0B1FFF75FF90546AA
:1027D00009E0FFF75BF9401B41F28831884202D9DA
:1027E000032077E622E03748006A00F00200002864
:1027F000EFD012E0FFF74AF9054608E0FFF746F987
:10280000401B41F28831884201D9032062E62D48FD
:10281000006A00F002000028F0D1012F05D12948FC
:10282000C06920F080502749C86100BFE069C8B383
:102830002448406800F00C00082860D0E0690228B5
:1028400048D1002020490866FFF720F9054606E038
:10285000FFF71CF9401B022801D903203AE619486A
:10286000006800F000700028F2D1206AB0F5803FC7
:1028700007D11448406820F40030A168084311498A
:102880004860D4E9080108430E49496821F47411ED
:1028900008430C49486001200B490866FFF7F6F829
:1028A000054607E03DE0FFF7F1F8401B022801D99B
:1028B00003200FE60348006800F000700028F2D003
:1028C0002FE000000010024000004242800442421B
:1028D00000700040002014490866FFF7D7F805464D
:1028E00006E0FFF7D3F8401B022801D90320F1E5E9
:1028F0000E48006800F000700028F2D111E0E06995
:10290000012800D1E6E50948466806F48031206ACE
:10291000814204D106F47011606A814201D0012025
:10292000D8E50020D6E50000000042420010024039
:1029300070B504462546681EB0F1807F01D30120A2
:102940000FE0681E4FF0E02148610F214FF0FF308B
:1029500001F086FB00204FF0E0218861072008612C
:10296000002070BD00BFFEE7014608684069C0F363
:102970008020B0B16FF480600A6850610020086365
:10298000202081F83D00002081F83E00086C40F0D6
:102990000400086400BF002081F83C0000BF012053
:1029A00070470020FCE700002DE9F84304460D467F
:1029B00090461E46E76A2068006840F480602168FF
:1029C0000860082F04D0012F02D017F5803F06D1F0
:1029D0002068006840F480702168086008E0206B7F
:1029E000112805D12068006840F4807021680860D3
:1029F000434600224FF001112046009600F003F9F3
:102A000060B12068006800F48070B0F5807F02D16A
:102A10004FF4007020640320BDE8F8832069B0F50E
:102A2000804F05D1E8B240F001002168086149E01B
:102A300005F44070F02141EAE01021680861334656
:102A400042462649204600F03DF908B10120E3E75F
:102A5000E8B221680861334642462049891F204672
:102A600000F030F908B10120D6E700BF0020009047
:102A700020684069009020688069009000BF00BF16
:102A80002068006840F48070216808604346002296
:102A90004FF001112046009600F0B5F858B12068BB
:102AA000006800F48070B0F5807F02D14FF40070B0
:102AB00020640320B0E705F44070F12141EAE01002
:102AC00021680861334642460449891F204600F0C8
:102AD000F9F808B101209FE700209DE708000100F8
:102AE0002DE9F84304460D4617469846E66A082E37
:102AF00004D0012E02D016F5803F06D12068006870
:102B000040F480702168086008E0206B122805D12D
:102B10002068006840F48070216808603B4600220D
:102B20004FF001112046CDF8008000F06CF860B144
:102B30002068006800F48070B0F5807F02D14FF407
:102B4000007020640320BDE8F8832069B0F5804F51
:102B500004D105F0FE002168086112E005F4407020
:102B6000F02141EAE0102168086143463A460B49EA
:102B7000204600F0A7F808B10120E4E7E8B2216898
:102B8000086143463A460549891F204600F09AF8F5
:102B900008B10120D7E70020D5E7000008000100B8
:102BA00070B504460D46164625E02046FFF7DCFECC
:102BB00008B1012070BD681CE8B1FEF767FF801BFB
:102BC000A84200D8BDB920684069C0F3800090B920
:102BD00000202063202084F83D00002084F83E007F
:102BE000206C40F02000206400BF002084F83C00EE
:102BF00000BF0120DEE720684069C0F380000028A4
:102C0000D3D00020D6E72DE9F04104460D46174603
:102C10001E46DDF8188038E0701CA8B3FEF736FFBA
:102C2000A0EB0800B04200D876BBC5F307400128EE
:102C30000AD120684069A9B20840A9B2884201D1EE
:102C400001200BE0002009E020688069A9B208405B
:102C5000A9B2884201D1012000E00020B84214D17D
:102C600000202063202084F83D00002084F83E00EE
:102C7000206C40F02000206400BF002084F83C005D
:102C800000BF0120BDE8F081FFE7C5F30740012840
:102C90000AD120684069A9B20840A9B2884201D18E
:102CA00001200BE0002009E020688069A9B20840FB
:102CB000A9B2884201D1012000E00020B842ABD087
:102CC0000020DFE72DE9F04104460D4616461F4679
:102CD00058E020684069C0F38020E8B120680068AF
:102CE00040F40070216808606FF4806021684861DA
:102CF00000202063202084F83D00002084F83E005E
:102D0000206C40F00400206400BF002084F83C00E8
:102D100000BF0120BDE8F081701C90B3FEF7B6FE45
:102D2000C01BB04200D866BBC5F3074001280AD1DA
:102D300020684069A9B20840A9B2884201D10120A7
:102D40000BE0002009E020688069A9B20840A9B220
:102D5000884201D1012000E0002090B900202063CA
:102D6000202084F83D00002084F83E00206C40F0D4
:102D70002000206400BF002084F83C0000BF012038
:102D8000C8E7FFE7C5F3074001280AD1206840697A
:102D9000A9B20840A9B2884201D101200BE000206D
:102DA00009E020688069A9B20840A9B2884201D12F
:102DB000012000E0002000288BD00020AAE770B599
:102DC00004460D46164637E020684069C0F30010FF
:102DD000A0B16FF01000216848610020206320201E
:102DE00084F83D00002084F83E00206C206400BF81
:102DF000002084F83C0000BF012070BDFEF746FEB5
:102E0000801BA84200D8BDB920684069C0F380107B
:102E100090B900202063202084F83D00002084F831
:102E20003E00206C40F02000206400BF002084F8A9
:102E30003C0000BF0120E0E720684069C0F380103B
:102E40000028C1D00020D8E770B504460D461646CC
:102E500025E02046FFF788FD08B1012070BD681C01
:102E6000E8B1FEF713FE801BA84200D8BDB9206868
:102E70004069C0F3C01090B900202063202084F87E
:102E80003D00002084F83E00206C40F020002064CB
:102E900000BF002084F83C0000BF0120DEE720686E
:102EA0004069C0F3C0100028D3D00020D6E700004E
:102EB00000B585B000BF2E48C06940F400102C4911
:102EC000C8610846C06900F40010009000BF00BF50
:102ED00000BF0846806940F00800886108468069A4
:102EE00000F00800009000BF00BF00BF08468069E6
:102EF00040F0080088610846806900F008000090F2
:102F000000BF00BF402001901220029003200490D7
:102F10000020039001A91748FEF728FC80200190AB
:102F200001A91448FEF722FC1348FEF7B5FDE8B9E5
:102F30000F48006940F400100D4908610846006917
:102F400020F4001008610D480B49086001140A487C
:102F500001610B48084948600021074841618160D0
:102F6000C1610162C1608161FEF79AFD05B000BDDB
:102F700000100240000C0140F0040020005400400A
:102F8000801A060008B50121082000F0E5FC482061
:102F90008DF803004FF4E040ADF8000003208DF8F9
:102FA000020069460148FEF726FB08BD000C0140FF
:102FB00000B585B000BF2448806940F00400224974
:102FC00088610846806900F00400009000BF00BFDF
:102FD00000BF0846806940F00400886108468069A7
:102FE00000F00400009000BF00BF00BF08468069E9
:102FF00040F0040088610846806900F004000090F9
:1030000000BF00BF402001900120029003900320E8
:10301000049001A90D48FEF7A9FB8020019001A9A9
:103020000A48FEF7A3FB0820019001A90748FEF714
:103030009DFB402005491031086080200860082071
:10304000086005B000BD000000100240000801400B
:103050002DE9F04104460E46154631462046FDF75F
:1030600060FD80462946FDF75FFD07462146FDF7D6
:1030700003FDBDE8F08100BFFEE7704770B5002199
:1030800000230F22C47804B3154C246804F4E064D0
:10309000C4F5E064210AC1F10403CA40447804FA8B
:1030A00003F184781440214309010E4C0678A155A0
:1030B000047804F01F050124AC4005786D11AD00C3
:1030C00005F1E025C5F8004109E0047804F01F058A
:1030D0000124AC40044D0678761145F8264070BDB9
:1030E0000CED00E000E400E080E100E00249014373
:1030F000024A1160704700000000FA050CED00E084
:1031000000200CE0002106E00022064B03EBC01378
:103110005A544A1CD1B28029F6DB421CD0B208288E
:10312000F0DB7047280900202DE9F04304460D46E6
:1031300016461F467F2C01DDBDE8F0833F2D00DDE4
:10314000FAE7A119802902DDC4F18001CEB2E919A4
:10315000402902DDC5F14001CFB2284630E02346C8
:1031600029E04FEAE07C00EB5C7C4FEAEC0CDFF8F6
:103170005C8008EBCC1C1CF803C002464FEAE078E8
:1031800000EB58784FEAE808A0EBC8094FF00108B7
:1031900008FA09F82CEA080C01464FEAE07800EB3F
:1031A00058784FEAE808DFF8249009EBC81808F8C7
:1031B00003C0591CCBB2A1199942D2DC411CC8B240
:1031C000E9198142CBDC00BFB6E7000028090020E6
:1031D0002DE9FF4F86B0069F079EDDF82080DDF8C1
:1031E00024900020019000904E450FD1474502DD0C
:1031F000BA464746D0463C4605E0F1B2E0B200F0A0
:10320000A3F8601C04B24445F7DD99E047450FD1AF
:103210004E4502DDB2464E46D146354605E0E9B29E
:10322000F8B200F091F8681C05B24D45F7DD87E073
:10323000474505DDBA464746D046B2464E46D146DA
:103240004E4507DD704206B2C9F100000FFA80F961
:1032500001200190A9EB0600A8EB0701884207DDD9
:10326000BA4637465646C246C846D1460120009067
:10327000A8EB070000B20590A9EB06000FFA80FB4F
:103280004FEA4B0000B203900598ABEB0000400002
:1032900000B202900598C0EB4B0000B204903C468F
:1032A0003546019838B1009828B16242D1B2E8B2EF
:1032B00000F04AF812E0019828B16A42D1B2E0B2B7
:1032C00000F042F80AE0009820B1E1B2E8B200F064
:1032D0003BF803E0E9B2E0B200F036F82EE0601C03
:1032E00004B20498002805DADDE90310084400B2AE
:1032F000049006E0681C05B202990498084400B2E4
:103300000490019838B1009828B16242D1B2E8B275
:1033100000F01AF812E0019828B16A42D1B2E0B286
:1033200000F012F80AE0009820B1E1B2E8B200F033
:103330000BF803E0E9B2E0B200F006F84445CEDB5A
:103340000AB0BDE8F08F000070B503467F2B00DDAA
:1033500070BD3F2900DDFBE7CC1701EB5474E4108E
:103360000C4D05EBC414E45C0A46CD1701EB557512
:10337000ED10A1EBC5060125B5402C430846CD173D
:1033800001EB5575ED10034E06EBC515EC5400BF6F
:10339000DEE70000280900202DE9FF4F87B0144622
:1033A0001D46DDE91467DDF81C80DDF82090DDF8AE
:1033B0001C80CDF81880DDF82090CB46DDF81C800D
:1033C000ADF80C80ADF80E40ADF81060DDF820903F
:1033D000ADF80490ADF80650ADF80870169890B9A5
:1033E0002B462246DDE90701FFF7F2FE3B46324657
:1033F000DDE90701FFF7ECFE3B4632462946204651
:10340000FFF7E6FE39E0444500DAA046464500DA1B
:10341000B0464D4500DAA9464F4500DAB946069850
:10342000844200DD06940698864200DD06965D45DE
:1034300000DDAB465F4500DDBB46C2461AE0CDF875
:10344000149010E00598534601AA03A900900320A8
:1034500000F01FFA18B150460599FFF775FF05985F
:10346000401CC0B2059005985845EBDD0AF10100FB
:1034700000F0FF0A06988245E1DD0BB0BDE8F08F51
:1034800038B5002406E0002500E06D1CB5F57A7F14
:10349000FBD3641CB4F57A7FF5D30121082000F03A
:1034A0005BFA14208DF8030003208DF802004FF41E
:1034B0008070ADF8000069460848FEF79CF84FF4AC
:1034C0000070ADF8000069460448FEF794F801204A
:1034D00000F0A0F9012000F0A9F938BD000C01406E
:1034E00070B50546002411E080212141294009B131
:1034F000012100E00021084600F098F9012000F0C9
:1035000089F9002000F086F9601CC4B2082CEBDBBE
:10351000012000F07FF9002000F07CF970BD10B5AB
:10352000012000F083F9012000F074F9002000F080
:103530007DF9002000F06EF910BD10B5002000F0FC
:1035400075F9012000F066F9012000F06FF910BD57
:1035500010B5FFF795FFAE2000F074F9D52000F00C
:1035600071F9802000F06EF9A82000F06BF93F207F
:1035700000F068F9D32000F065F9002000F062F94E
:10358000402000F05FF9A12000F05CF9C82000F0B5
:1035900059F9DA2000F056F9122000F053F9812091
:1035A00000F050F9CF2000F04DF9D92000F04AF991
:1035B000F12000F047F9DB2000F044F9302000F062
:1035C00041F9A42000F03EF9A62000F03BF98D203F
:1035D00000F038F9142000F035F9AF2000F032F98E
:1035E000FFF78EFD00F002F910BD10B50246012074
:1035F00000E050430B1EA1F10101FAD110BD70B5DE
:1036000005460C4645F0B00000F01CF9102141EAD7
:10361000141000F017F904F00F0000F013F970BD5A
:10362000F8B506460F4614461D46082D0CD1A4F1E8
:1036300020000E4901EB00101023082239460090AB
:10364000304600F017F80FE0062D0DD1A4F1200050
:1036500000EB4000064901EB4000082306223946F2
:103660000090304600F006F8F8BD00003451000824
:10367000245700082DE9F04707460C469046994626
:10368000DDF820A07F2F01DDBDE8F0873F2C00DDB5
:10369000FAE74B46424621463846FFF745FD0025EE
:1036A00070E0002669E0B8197F2800DD67E0E117C7
:1036B00004EB517105EBE101072900DDE4E7204649
:1036C000E21704EB527205EBE202344B03EBC21239
:1036D000BB19D25C2146E31704EB5373DB10A4EB58
:1036E000C30305FB086C1AF80CC00CFA03FC42EA91
:1036F0000C02E31704EB537305EBE303DFF89CC004
:103700000CEBC31307EB060C03F80C20E11704EBDA
:10371000517105EBE101491C072900DD2BE0204632
:10372000E21704EB527205EBE202521C1B4B03EB57
:10373000C212BB19D25C2146E31704EB5373DB10B2
:10374000A4EBC303C3F1080305FB086C1AF80CC013
:103750004CFA03FC42EA0C02E31704EB537305EB4B
:10376000E3035B1CDFF834C00CEBC31307EB060C60
:1037700003F80C2000BF701CC6B2464593DB00BFA7
:10378000681CC5B2A9F10100C11700EB51710122FB
:1037900002EBE101A94284DC00BF75E728090020A3
:1037A0002DE9F0470646894617461D46DDF820807C
:1037B000002417E0281B411E0A20FFF716FFB7FB65
:1037C000F0F00A21B0FBF1F201FB120000F1300A27
:1037D00004FB0861C8B2434652464946FFF720FF42
:1037E000601CC4B2AC42E5DBBDE8F08710B5002434
:1037F0000BE000212046FFF702FF054901EBC41052
:10380000802100F02FF8601CC4B2082CF1DB10BD41
:103810002809002010B5044622464FF48071024862
:10382000FDF774FF10BD0000000C014010B5044608
:1038300022464FF400710248FDF768FF10BD0000FA
:10384000000C014010B50446FFF769FE7820FFF731
:1038500047FE0020FFF744FE2046FFF741FEFFF73A
:103860006CFE10BD70B505460E46FFF758FE782079
:10387000FFF736FE4020FFF733FE002404E0285D0A
:10388000FFF72EFE601CC4B2B442F8DBFFF755FE12
:1038900070BD2DE9F04305460C461F46079E4FF0CC
:1038A000000C00216B1E34E032F91100B04201DD42
:1038B000012000E0002032F91380B04502DD4FF016
:1038C000010801E04FF0000840451FD034F9130013
:1038D00034F91180A0EB080032F91180A6EB08083A
:1038E00000FB08F032F9138032F91190A8EB0908B7
:1038F00090FBF8F034F911804044B84206DDBCF189
:10390000000F01D1012000E0002084460B46481C36
:1039100001B2A942C8DB0CF0FF00BDE8F08370479C
:1039200001460020034A506820F44040084350609C
:10393000704700000010024029B1064AD2690243D4
:10394000044BDA6104E0034AD2698243014BDA6135
:10395000704700000010024029B1064A92690243F4
:10396000044B9A6104E0034A92698243014B9A61D5
:10397000704700000010024008B508490968C908EE
:103980004FF47A72B1FBF2F14143009100BF00BFE6
:1039900000994A1E00920029F9D108BD00000020BC
:1039A00030B500210022002400232D4D6D6805F064
:1039B0000C0121B1042905D0082923D105E0294DA6
:1039C000056022E0274D05601FE0254D6D6805F478
:1039D0007012234D6D6805F48034022505EB924288
:1039E0001CB9214D554305600BE01D4D6D6805F474
:1039F00000351DB11C4D5543056002E0194D55437E
:103A0000056002E0174D056000BF00BF144D6D68F2
:103A100005F0F0010909154D6B5C0568DD40456056
:103A20000F4D6D6805F4E061090A104D6B5C456847
:103A3000DD4085600A4D6D6805F46051C90A0B4D83
:103A40006B5C4568DD40C560054D6D6805F440411F
:103A5000890B074D6B5CC568B5FBF3F5056130BD9F
:103A60000010024000127A0000093D002C000020E6
:103A70003C000020704710B5FEF76AFB10BD00B592
:103A80008FB014210AA8FCF7E5FF28216846FCF74F
:103A9000E1FF01200090000401900020029002202C
:103AA0000790C10308914FF4E01109916846FEF7B1
:103AB0000DFD08B100BFFEE70F200A9002200B9019
:103AC00000200C900E904FF480600D9002210AA807
:103AD000FEF7E8FB08B100BFFEE70FB000BD70477E
:103AE000FEB50121584800F0CDF801287ED1574895
:103AF0000088401C55490880084600884FF47A71B8
:103B000090FBF1F201FB120038B951480088401CCB
:103B10004F49088000204D4908804C480088052105
:103B200090FBF1F201FB120000284ED149480088B9
:103B300078284BDAFDF770FC2D2190FBF1F0C0F1F5
:103B40005A004549434A128821F812000846408825
:103B50000880404A128831F81200FDF7DDF9054669
:103B60003C490988491E3C4A32F81100FDF7D4F956
:103B700006464FF07A522946FFF76AFA0446FDF7E7
:103B8000D0F93549334A128821F812000C46314DDC
:103B90002D8814F81530314C2478241DE2B22D4CB8
:103BA0002488641E0D4615F814102C4C2478E41C4F
:103BB000E0B2FFF70DFB27480088401C254908802C
:103BC00026480088401C2549088037E0012021490B
:103BD000088000202149088037235022002120201E
:103BE000FFF7A2FA37237D22082100E02AE0032014
:103BF000FFF79AFA3E23782219460120FFF7E8FAE8
:103C00003E23012208211046FFF7E2FA0020082196
:103C100002220B46CDE90021029002460621012036
:103C2000FFF7BAFB00203E217B223D23CDE9002196
:103C3000029078223F211046FFF7AEFB0121024897
:103C400000F011F8FEBD000000040040200000203C
:103C50002200002024000020280D00202600002043
:103C6000CA4302827047CA430282704721B1028868
:103C700042F00102028004E002884FF6FE731A400F
:103C80000280704730B50246002000230024158AC8
:103C900005EA0103958905EA010413B10CB101207D
:103CA00000E0002030BD1AB183890B43838102E01C
:103CB00083898B438381704701894FF6F8721140E5
:103CC00001817047002202881D4B98420ED01D4B87
:103CD00098420BD0B0F1804F08D01B4B984205D0D2
:103CE0001A4B984202D01A4B984204D14FF68F7368
:103CF0001A404B881A43174B984207D0164B9842EC
:103D000004D04FF6FF431A40CB881A4302808B88B9
:103D100083850B8803850A4B98420BD0094B984248
:103D200008D00E4B984205D00D4B984202D00D4B57
:103D3000984201D10B7A03860123838270470000E9
:103D4000002C014000340140000400400008004005
:103D5000000C0040001000400014004000400140F2
:103D600000440140004801401FB501210220FFF737
:103D7000E3FD1B48FFF7A0FF0020ADF80A00ADF8F7
:103D800006000920ADF8080041F61F40ADF8040018
:103D900000208DF80C0001A91148FFF793FF0121C5
:103DA0000F48FFF75DFF012211460D48FFF77BFF2B
:103DB0004FF4C060FFF79AF91D208DF80000012034
:103DC0008DF8030002208DF8010001208DF802001B
:103DD0006846FFF753F901210148FFF747FF1FBD70
:103DE0000004004010B540F225511D4800F057F87E
:103DF00010B31B4800F00EF9C4B21A48008800F452
:103E00000040C8B91748008800F4804060B10A2C0F
:103E100003D000201349088021E01248008840F4B4
:103E20000040104908801AE00D2C06D10D4800888A
:103E300040F480400B49088011E00A480088C0F334
:103E40000D0009490C5407480088401C05490880AA
:103E500008460088B0F5167F01DB0020088010BD01
:103E6000004400402A0000207014002021B1828903
:103E700042F40052828104E082894DF6FF731A40B9
:103E80008281704702460020B1F5007F00D100BF5B
:103E900013880B400BB1012000E00020704770B583
:103EA0000246002400230025002040F66A16B14295
:103EB00000D100BFC1F3421501F01F03012606FA2D
:103EC00003F3012D02D19689334006E0022D02D181
:103ED000168A334001E0968A33400C12012606FA16
:103EE00004F41688344013B10CB1012000E0002026
:103EF00070BDF0B50346002400260025002040F6E2
:103F00006A17B94200D100BF1846C1F3421401F04C
:103F10001F06012707FA06F5012C01D10C3004E039
:103F2000022C01D1103000E014301AB107682F4381
:103F3000076002E00768AF430760F0BD2DE9F04776
:103F400086B005460E460024A24600BFA1460027C3
:103F5000B08900B100BF2F462C8A4CF6FF70044098
:103F6000F08804432C82AC894EF6F3100440B088EC
:103F700031890843718908430443AC81AC8A4FF608
:103F8000FF400440B0890443AC8201A8FFF708FD5C
:103F90001F48874202D1DDF810A001E0DDF80CA037
:103FA000A88900F4004040B10AEBCA0000EB0A10F7
:103FB00031684900B0FBF1F807E00AEBCA0000EBFA
:103FC0000A1031688900B0FBF1F86420B8FBF0F00A
:103FD00004012009642101FB1089A88900F4004034
:103FE00040B1322000EBC900B0FBF1F000F0070057
:103FF000044308E0322000EB09106421B0FBF1F02B
:1040000000F00F0004432C8106B0BDE8F0870000EB
:104010000038014001468888C0F308007047C1F3AA
:1040200008028280704700BFFEE7000037B51446E3
:104030000846064B6A46214600F0F8F804466946F1
:10404000002000F076FC20463EBD00003349000809
:1040500002480068C0F30220704700000CED00E049
:1040600010B5002804DB0A07130E054A135406E0B6
:104070000A07140E034A00F00F031B1FD45410BD8F
:1040800000E400E018ED00E002E008C8121F08C1DB
:10409000002AFAD170477047002001E001C1121FC9
:1040A000002AFBD1704700002DE9FF5F82B000219C
:1040B000DDE90430020DDDF840B0034318D044F6CA
:1040C0001050A2F2FF3242431514119801281FD05C
:1040D000A5EB0B00401C5FEA000A4FF000064E4FB4
:1040E000DFF83891B046504615D5CAF1000413E008
:1040F000119801244AA3012801D16FEA0B0102980B
:10410000119AC0E90031C0E9024206B0BDE8F09F53
:10411000CBF10000DFE704460021404A491842EB9A
:104120000450CDE9001012E0E00707D032463B46CC
:1041300040464946FCF70FFE8046894632463B46DC
:1041400010461946FCF707FE06460F466410002C81
:10415000EAD1DDE90401DDE90023BAF1000F06DA56
:10416000FCF7F9FD42464B46FCF7F5FD05E0FCF790
:1041700064FE42464B46FCF760FE04460E460022B3
:10418000284BFCF7F5FE03D84FF0FF30014607E05F
:104190000022254B20463146FCF736FDFDF72CF872
:1041A000102409E0002C0ADB0A220023FCF73EFF62
:1041B000039B30321A55641E50EA0102F2D1641C8E
:1041C000039AC4F111031444119A012A03D0012265
:1041D00008430DD10AE0084304D000204FF0110B32
:1041E000119072E7A3EB0B056D1E0DE05B4504DD3E
:1041F0004FF0000205F1010504E003DA4FF0000280
:10420000A5F10105002AECD002981199C0E902310C
:10421000C0E9004579E70000000014400000F03FCD
:10422000300000000000F0430000E03F2DE9FF4FA8
:1042300095B09A46884606460025EEE1252877D1B6
:1042400000242746F94A0121039400E0044316F8AC
:10425000013F203B01FA03F01042F7D130782A28C1
:1042600011D06FF02F033078A0F13002092A16D850
:10427000039A44F0020402EB820203EB4202104470
:10428000761C0390EFE758F8042B0392002A03DA18
:10429000504244F40054039044F00204761C3078F9
:1042A0002E2816D116F8010F44F004042A280DD048
:1042B0006FF02F023078A0F13003092B09D807EBFB
:1042C000870302EB4303C718761CF3E758F8047B17
:1042D000761C30786C280FD006DC4C2817D0682864
:1042E0000DD06A2814D104E0742810D07A280FD198
:1042F0000DE044F400140AE044F4801401E044F4B6
:1043000040147278824202D104F58014761C761C27
:10431000307866280BD013DC582877D009DC0028C9
:1043200075D04528F6D04628F4D047281AD193E115
:1043300018E0632835D0642879D0652812D18BE144
:10434000702873D008DC6728F1D069286FD06E28F8
:104350000DD06F2806D1ACE073282CD0752874D00E
:10436000782853D05246179990476D1C54E1C4F3F6
:104370000250022809D003280DD0D8F800100428D4
:104380000DD00D6008F1040846E1D8F80010EA17D6
:10439000C1E90052F6E7D8F800100D80F2E70D7081
:1043A000F0E718F8041B8DF8001000208DF80100CC
:1043B000EB46012003E058F804BB4FF0FF306107E3
:1043C0004FF0000102D40DE009F101018946B94224
:1043D0000FDA8145F8DB1BF809100029F4D108E059
:1043E00009F1010189468142FADB1BF80910002915
:1043F000F6D103985346A0EB090721463846179A91
:1044000000F080FA284400EB090507E044E008E1E9
:104410000DE01BF8010B524617999047B9F10109BD
:10442000F7D2534621463846179AF2E039E00A217E
:10443000C4F302524FF0000B0091022A06D058F844
:10444000040BC117032A09D00AE023E008F1070092
:1044500020F00702F2E80201904605E000B2C11721
:10446000042A01D140B2C117002906DA0A46002108
:10447000404261EB02012D2202E0220504D52B22ED
:104480008DF80420012203E0E20701D02022F7E7A3
:10449000914657E00A2100E010214FF0000B0091F7
:1044A0000BE010214FF0000B44F0040408270091AA
:1044B00003E008204FF0000B0090C4F30252022AE0
:1044C00005D058F8040B0021032A08D008E008F1B1
:1044D000070020F00702F2E80201904603E080B2F4
:1044E000042A00D1C0B24FF0000922072AD5327841
:1044F000702A07D0DDF800C08CF0100C5CEA0B0CC1
:1045000005D00EE040228DF80420012208E050EA98
:10451000010306D030238DF804308DF805200222E7
:104520009146009B83F0080353EA0B030AD150EA3B
:10453000010201D1620705D530228DF804204FF029
:1045400001097F1E3278582A04D039A20C920CAA95
:1045500002920BE03BA2F9E75B46009AFCF766FD8E
:104560000C9B9B5C029A521E0292137050EA01024D
:10457000F2D1029804A9081A00F1200B600702D5B5
:1045800024F4803400E001275F4502DDA7EB0B0037
:1045900000E0002000EB0B01009003984944401A12
:1045A0000390E00306D453462146179A039800F07F
:1045B000A9F90544002706E001A85246C05D1799F5
:1045C00090476D1C7F1C4F45F6DBE0030CD553462E
:1045D0002146179A039800F095F9054404E030202D
:1045E0005246179990476D1C0099481E009000296B
:1045F000F5DC08E00298029952460078491C0291C5
:10460000179990476D1CBBF10001ABF1010BF1DC78
:104610005BE100F065F90544761C307800287FF4F2
:104620000DAE19B02846BDE8F08F00000928010042
:104630003031323334353637383961626364656618
:1046400000000000303132333435363738394142DA
:104650004344454600000000600700D4062708F1E7
:10466000070020F00700F0E80223804603F0004C2A
:104670005FEA0C0001D097A009E0200501D596A0C3
:1046800005E0E00701D095A001E0AFF24C001390E7
:10469000307823F0004365280CD006DC452809D08B
:1046A00046281DD047287FD13BE0662818D06728D0
:1046B0007AD136E00021112F01DB112000E0781CB7
:1046C000CDE9000104A90CA8FFF7EEFCDDE90D011E
:1046D0000C9A4FF0000B07F10109109200914EE087
:1046E0004FF000400097CDE9011004A90CA8FFF796
:1046F000DBFCDDE90D020C9B0F994FF0000B91469E
:104700001093009211B9791C00EB0109B7EB090075
:1047100003D4C0F1FF3B07F10109A9EB07000190A9
:1047200042E0012F00DA01270021112F01DD1120C5
:1047300000E03846CDE9000104A90CA8FFF7B4FC5D
:10474000DDE90D010C9A00914FF0000BB946109273
:1047500021070FD4009A4A4503DA914601E0A9F1F6
:104760000109B9F1010F05DD109AA9F10101515CB0
:104770003029F4D0B84202DA10F1040F03DA012133
:10478000CDE9011010E0002803DC8344A9EB00010F
:1047900002E0411C494500DD8946A0EB0B00401CAE
:1047A00001904FF000400290200705D40198484541
:1047B00002DB4FF0FF30019000208DF84B00029893
:1047C0000DF14B07B0F1004F25D002200C902B20AB
:1047D0000D90029800280CDA404202902D200D9096
:1047E00007E00A210298FCF70BFC3031029007F831
:1047F000011D0C99481E0C900029F2DC029800283B
:10480000EFD1791E0D980870307800F0200040F04C
:10481000450007F8020D11A8C01BC01D0290139897
:10482000007800B1012000EB0901019801EBE07173
:10483000029801440398401A401E0390E00306D4F6
:1048400053462146179A039800F05CF805441398E4
:10485000007818B15246179990476D1CE00323D594
:1048600053462146179A039800F04CF805441BE084
:10487000BBF1000F07DB0098584504DD109817992D
:1048800010F80B0001E0179930205246904701982C
:104890000BF1010B401E05F10105019004D12E2002
:1048A0005246179990476D1CB9F10001A9F1010911
:1048B000DEDC05E017F8010B5246179990476D1C96
:1048C0000299481E02900029F4DC53462146179AAB
:1048D00003989EE62D0000002B0000002000000041
:1048E0002DE9F041044600251E461746880404D4ED
:1048F00005E039462020B0476D1C641EF9D52846D6
:10490000BDE8F0812DE9F041044600251E469046A1
:10491000C80301D5302700E02027880404D505E02E
:1049200041463846B0476D1C641EF9D52846BDE89F
:10493000F0810A68531C0B601070704713490968B6
:104940004FF47A72B1FBF2F1491E4FF0E02251614F
:1049500000219161052111610FE000BF4FF0E021BE
:10496000096901F480310029F8D04FF0E02109698C
:1049700021F480314FF0E0221161011EA0F101020B
:1049800090B2EAD14FF0E0221161704700000020A0
:104990002DE9F04105460F461446002600200E4939
:1049A000088029460DA000F0FBFA8CB10AE00A202D
:1049B000FFF7C4FF0848008800F4004010B1002051
:1049C00005490880601E80B2041EF0D104B901269A
:1049D0003046BDE8F08100002A00002025730D0A52
:1049E0000000000070B504460D4604482A462146E2
:1049F00003680348FBF798FB70BD00001800002017
:104A00002808002088B00024FDF7AEFBFFF737F838
:104A1000FEF7CEFA00F030FA00F004F9FEF798FD48
:104A20004FF4E13000F0E4FAFCF75CFDFCF706FD22
:104A3000FCF70CFCFFF798F9FEF7A4FA3E23782266
:104A400019460120FEF7C4FB3E230122082110462F
:104A5000FEF7BEFB0020082102220B46CDE9002113
:104A60000290024606210120FEF796FC00203E211E
:104A70007B223D23CDE90021029078223F21104680
:104A8000FEF78AFCFEF7B2FE88E0062002230090C3
:104A90004348028814210120FEF782FEFEF7A6FE9D
:104AA00000204049087006A800F092F804A906A862
:104AB000FFF798FF05A907A800F062FA3A4906989F
:104AC000FCF794FA13D238490798FCF78FFA0ED204
:104AD0003649049841F824003549059841F82400E6
:104AE000601C84B24FF480003249086006E0002464
:104AF00040203049086000202F490880962C41DB77
:104B000000249621294800F0ADF88046FCF704FA0D
:104B100006462A480088FCF7FFF90746284A31462E
:104B2000FEF796FA0546FCF7FCF923490880962122
:104B30001E4800F097F80546062002232A46012168
:104B400000900520FEF72CFE96221949174800F028
:104B5000DFF80646FCF7E5F90546062002232A465B
:104B6000012100901420FEF71BFEFEF73FFE962168
:104B70000E4800F077F8114908800F48018811A00D
:104B8000FCF700FD0C480088462804DB4FF40000C9
:104B90000849086002E080200649086075E70000C7
:104BA000220000200E0000200050C3479802002081
:104BB00040000020100801401000002012000020DA
:104BC0009A99193F486561727452617465000000DA
:104BD0001FB50446062202A9072000F023F99DF81C
:104BE000080000049DF8091040EA01209DF80A1011
:104BF0000843C0F3110000909DF80B0000049DF8DD
:104C00000C1040EA01209DF80D100843C0F311007C
:104C100001900098FCF780F920600198FCF77CF97E
:104C200060601FBD08B509480068094B094A1D218D
:104C300000900948FBF7E9FE04480068074B054A65
:104C40001D2100900648FBF7E0FE08BD180000207B
:104C500040080020C050000828080020B4080020A8
:104C6000340800202DE9F04705460E464FF00008B5
:104C7000002407E055F824104046FBF7FDFE80466F
:104C8000601C84B2B442F5DB3046FCF745F981463E
:104C900049464046FBF77AFF8046002410E055F86D
:104CA00024004146FCF7A2F908D205EB84014868CC
:104CB0004146FCF791F901D2274603E0601C84B21B
:104CC000B442ECDB00BF601C84B211E055F8240054
:104CD0004146FCF78BF909D205EB8401486841464F
:104CE000FCF77AF902D2E01B87B203E0601C84B2C1
:104CF000B442EBDB00BF0E2F08DD642F06DA40F66E
:104D0000B83090FBF7F080B2BDE8F0870020FBE7F9
:104D10002DE9F04F91B005460E46174628680F90D2
:104D2000D5F8008030680E90D6F80090012423E07A
:104D300055F824100F98FCF74FF902D255F82400CB
:104D40000F9055F824104046FCF750F901D255F861
:104D5000248056F824100E98FCF73EF902D256F83B
:104D600024000E9056F824104846FCF73FF901D273
:104D700056F82490601C84B2BC42D9DB49460E9898
:104D8000FBF7CCFE41460C90FBF7CEFE8346414636
:104D90000F98FBF7C3FE49460C90FBF7C5FE59463A
:104DA0000D90FBF7F3FE82465046FCF7CEF8174A0B
:104DB000174BCDE90401FBF7CEFFCDE908015046C2
:104DC000FCF7C3F8CDE904015046FCF7BEF8114AE0
:104DD000114BCDE90001FBF7BEFFCDE90201DDE992
:104DE0000423FBF7B8FFCDE90601DDE90823FBF753
:104DF0000BFF0A4A0A4BCDE90A01FBF705FFCDE993
:104E00000C01FCF7CDF811B0BDE8F08FB4C876BE48
:104E10009F5A3E4048E17A14AE8746C0AE47E17AD9
:104E200014B657407CB506460C46154601960A2036
:104E3000012301AAAE2100900548FDF7CFF80A2012
:104E40002B462246AF2100900148FCF711FF7CBDA4
:104E5000F00400207CB505460C468DF804508DF812
:104E600005400A20022301AAAE2100900148FDF767
:104E7000B5F87CBDF004002008B5FEF719F84FF432
:104E8000FA70FCF749FC00F03FF840210920FFF7D9
:104E9000E1FF0520FCF740FCE0210220FFF7DAFFEC
:104EA00000210320FFF7D6FF00210420FFF7D2FFE7
:104EB00000210520FFF7CEFF00210620FFF7CAFFE3
:104EC0004F210820FFF7C6FF03210920FFF7C2FF8B
:104ED0002A210A20FFF7BEFF2F210C20FFF7BAFF7F
:104EE0002F210D20FFF7B6FF01212120FFF7B2FF90
:104EF000012269460020FFF795FF0122694610460E
:104F0000FFF790FF08BD000000B585B000200190BC
:104F100002900390049000BF1648806940F008009A
:104F2000144988610846806900F00800009000BFBD
:104F300000BF00BF0846806940F001008861084654
:104F4000806900F00100009000BF00BF20200190A8
:104F5000094802900120039001A90848FCF706FCCB
:104F6000002205211720FDF74AF91720FDF737F930
:104F700005B000BD0010024000002110000C0140EF
:104F800070B504460D4604482A4621460368034886
:104F9000FBF7CAF870BD000018000020340800209C
:104FA0000FB438B505A800900F48009A0499FFF790
:104FB0003DF8002000900C48FBF757FD85B2002417
:104FC0000DE000BF40210948FEF75CFF0028F9D042
:104FD0000548015D0548FFF722F8601C84B2AC4229
:104FE000EFDB38BC5DF814FB1812002000440040D1
:104FF00010B586B0044601210420FEF7ADFC012166
:105000004804FEF799FC0420ADF8100003208DF849
:10501000120018208DF8130004A91C48FCF7EBFAC5
:105020000820ADF8100004208DF8130004A91748DB
:10503000FCF7E1FA26208DF8140003208DF8150006
:105040008DF8160001208DF8170005A8FEF716F858
:1050500000940020ADF80400ADF80600ADF808009B
:10506000ADF80C000C20ADF80A0069460848FEF7C0
:1050700065FF012240F225510548FEF73AFF012164
:105080000348FEF7F3FE06B010BD00000008014023
:105090000044004000000000000000000102030482
:1050A00006070809000000000102030402030405CA
:1050B000060708090A0B0C0D0E0F10100102000064
:1050C0007B34CABA6FEE10BBC55D57BB450C91BBB4
:1050D0004DEE9BBB741C45BBE8AC0F3B52B1423C50
:1050E0006113D83C8D3E383D2017873D9BAFB13DC5
:1050F00009EDD53DD248EE3DF5DEF63DD248EE3D18
:1051000009EDD53D9BAFB13D2017873D8D3E383D24
:105110006113D83C52B1423CE8AC0F3B741C45BB18
:105120004DEE9BBB450C91BBC55D57BB6FEE10BBF5
:105130007B34CABA0000000000000000000000003C
:1051400000000000000000F8000000000000003334
:105150003000000000160E00160E000000000000D7
:105160000000000040C07840C0784000043F0404C4
:105170003F040400007088FC08300000001820FF85
:10518000211E0000F008F000E018000000211C03C0
:105190001E211E0000F00888700000001E2123243C
:1051A00019272110000000160E000000000000006A
:1051B00000000000000000E01804020000000007EA
:1051C0001820400000020418E000000000402018F1
:1051D00007000000404080F0804040000202010FC4
:1051E00001020200000000F0000000000101011FA8
:1051F00001010100000000000000000000B070008C
:10520000000000000000000000000000000101019B
:10521000010101010000000000000000003030002A
:105220000000000000000000806018040060180604
:105230000100000000E010080810E000000F10203E
:1052400020100F00001010F8000000000020203F88
:105250002020000000700808088870000030282412
:1052600022213000003008888848300000182020B3
:1052700020110E000000C02010F8000000070424D8
:10528000243F240000F8088888080800001921201D
:1052900020110E0000E0108888180000000F112077
:1052A00020110E0000380808C83808000000003F30
:1052B000000000000070880808887000001C22218F
:1052C00021221C0000E010080810E000000031223C
:1052D00022110F00000000C0C000000000000030DC
:1052E00030000000000000C0C0000000000080B0DE
:1052F000700000000000804020100800000102043F
:105300000810200040404040404040000404040495
:105310000404040000081020408000000020100851
:1053200004020100007048080808F0000000003086
:1053300036010000C030C828E810E0000718272414
:1053400023140B000000C038E0000000203C2302C2
:105350000227382008F8888888700000203F202025
:1053600020110E00C0300808080838000718202057
:105370002010080008F808080810E000203F20204E
:1053800020100F0008F88888E8081000203F20202F
:105390002320180008F88888E8081000203F200023
:1053A00003000000C030080808380000071820205B
:1053B000221E020008F808000008F808203F21011A
:1053C00001213F20000808F8080800000020203FC5
:1053D0002020000000000808F8080800C080808035
:1053E0007F00000008F888C028180800203F20012E
:1053F0002638200008F8080000000000203F202088
:105400002020300008F8F800F8F80800203F003F9E
:10541000003F200008F830C00008F808203F2000B6
:1054200007183F00E01008080810E0000F102020C7
:1054300020100F0008F808080808F000203F21019C
:1054400001010000E01008080810E0000F182424F3
:1054500038504F0008F8888888887000203F200066
:10546000030C30200070880808083800003820211C
:1054700021221C00180808F8080818000000203F26
:105480002000000008F808000008F808001F20208D
:1054900020201F000878880000C83808000007385E
:1054A0000E010000F80800F80008F800033C0700AF
:1054B000073C0300081868808068180820302C0317
:1054C000032C30200838C800C83808000000203FEE
:1054D0002000000010080808C838080020382621DD
:1054E00020201800000000FE020202000000007FE1
:1054F00040404000000C30C00000000000000001EF
:105500000638C00000020202FE00000000404040D9
:105510007F00000000201008040810200000000098
:10552000000000000000000000000000808080807B
:10553000808080800002040800000000000000005D
:1055400000000000000080808080000000192422FC
:1055500022223F2008F8008080000000003F112038
:1055600020110E000000008080800000000E11203D
:1055700020201100000000808088F800000E11201B
:1055800020103F200000808080800000001F222229
:1055900022221300008080F0888888180020203F95
:1055A000202000000000808080808000006B9494A8
:1055B0009493600008F8008080800000203F210064
:1055C00000203F2000809898000000000020203F2D
:1055D00020200000000000809898000000C080801B
:1055E000807F000008F8000080808000203F2402B7
:1055F0002D302000000808F8000000000020203FA7
:10560000202000008080808080808000203F20005B
:105610003F20003F008080008080000000203F216C
:1056200000203F200000808080800000001F20209C
:1056300020201F00808000808000000080FFA120CB
:1056400020110E000000008080808000000E1120DC
:1056500020A0FF80808080008080800020203F216B
:10566000200001000000808080808000003324241E
:1056700024241900008080E0808000000000001FCA
:10568000202000008080000000808000001F20207B
:1056900020103F20808080000080808000010E303C
:1056A0000806010080800080008080800F300C039D
:1056B0000C300F0000808000808080000020312EA0
:1056C0000E312000808080000080808080818E707C
:1056D0001806010000808080808080000021302C2E
:1056E0002221300000000000807C02020000000047
:1056F000003F404000000000FF00000000000000EC
:10570000FF0000000002027C800000000040403FDB
:105710000000000000804040800000800000000089
:10572000000101000000000000000000002F000048
:1057300000000700070000147F147F1400242A7F54
:105740002A120023130864620036495522500000D3
:105750000007000000001C224100000041221C0044
:105760000014083E08140008083E0808000000A0C5
:1057700060000008080808080000606000000020C1
:1057800010080402003E5149453E0000427F40009F
:10579000004261514946002141454B310018141225
:1057A0007F10002745454539003C4A4949300001F2
:1057B0007109050300364949493600064949291E41
:1057C00000003636000000005636000000081422A3
:1057D00041000014141414140000412214080002A3
:1057E00001510906003E4955592E007C1211127CC8
:1057F000007F49494936003E41414122007F4141F5
:10580000221C007F49494941007F09090901003EE6
:105810004149497A007F0808087F0000417F410024
:10582000002040413F01007F08142241007F40409A
:105830004040007F020C027F007F0408107F003E82
:105840004141413E007F09090906003E4151215E68
:10585000007F091929460046494949310001017F65
:105860000101003F4040403F001F2040201F003FFB
:105870004038403F006314081463000708700807AD
:1058800000615149454300007F4141000002040886
:105890001020000041417F0000040201020400408A
:1058A000404040400000010204000020545454785D
:1058B000007F48444438003844444420003844447D
:1058C000487F00385454541800087E09010200181B
:1058D000A4A4A47C007F080404780000447D400058
:1058E000004080847D00007F102844000000417F3C
:1058F0004000007C04180478007C08040478003818
:105900004444443800FC242424180018242418FC9F
:10591000007C0804040800485454542000043F4408
:105920004020003C4040207C001C2040201C003CCB
:105930004030403C004428102844001CA0A0A07C1B
:10594000004464544C440000087F41000000007F84
:1059500000000000417F0800000804081008FF0153
:10596000818181FD8991A1C1FD81818101FFFF803C
:105970008080809F888482819F80808080FF00005B
:1059800041542B4D515454555345524346473D3095
:105990002C312C224E554C4C222C22657370303108
:1059A00073266B313665393373566C4C4E222C227C
:1059B0003461633466313265663462333232663361
:1059C0003231326232383165376164646433353480
:1059D00037376633613265626632376663636638CD
:1059E0003064616336363738323031643462326362
:1059F000222C302C302C22220000000041542B4D50
:105A0000515454434C49454E5449443D302C226B2B
:105A1000313665393373566C4C4E2E6573703031A8
:105A2000737C7365637572656D6F64653D325C2C64
:105A30007369676E6D6574686F643D686D616373EB
:105A400068613235365C2C74696D657374616D7094
:105A50003D313734343632343934393830357C22BC
:105A60000000000041542B4D515454434F4E4E3DC5
:105A7000302C22696F742D30367A303064617A6B45
:105A80006C3334676A672E6D7174742E696F746835
:105A900075622E616C6979756E63732E636F6D220A
:105AA0002C313838332C3100C85A0008000000204F
:105AB0004000000088400008085B0008400000200B
:105AC000881A0000984000080024F400000000003C
:105AD00010000000010000000000000000000000B5
